:100000000C942A000C9462050C948F050C94BC058A
:100010000C9447000C9447000C949D060C94CA065F
:100020000C94F7060C9424070C9443060C94700669
:100030000C9416060C9447000C9447000C9447004F
:100040000C94E9050C9447000C9447000C94CB04E5
:100050000C94470011241FBECFE5D8E0DEBFCDBF12
:1000600010E0A0E6B0E0EEE2F3E102C005900D92F0
:10007000AC36B107D9F720E0ACE6B0E001C01D9284
:10008000AB38B207E1F70E9451000C9495090C942B
:100090000000CF93DF93CDB7DEB70000DF91CF91A3
:1000A0000895CF93DF93CDB7DEB72E970FB6F894B0
:1000B000DEBF0FBECDBF81E390E021E330E0F90168
:1000C0002081206CFC01208382E390E022E330E079
:1000D000F90120812F73FC0120830E94E40080E05D
:1000E00090E0AAEFB3E489839A83AB83BC8320E0DA
:1000F00030E04AE755E469817A818B819C810E94D6
:100100000609DC01CB018D839E83AF83B88720E095
:1001100030E040E85FE36D817E818F8198850E94A9
:10012000580888232CF481E090E09A8789873FC0A3
:1001300020E03FEF4FE757E46D817E818F81988506
:100140000E94010918164CF520E030E040E251E42D
:1001500069817A818B819C810E940609DC01CB0137
:10016000BC01CD010E945D08DC01CB019A87898723
:100170000FC080E991E09C878B878B859C850197D8
:10018000F1F79C878B8789859A8501979A8789875C
:1001900089859A85892B69F714C06D817E818F814D
:1001A00098850E945D08DC01CB019A878987898543
:1001B0009A859E878D878D859E850197F1F79E870D
:1001C0008D870E94F400FDCFCF93DF931F92CDB7B0
:1001D000DEB781E0898380E690E00E94590200004A
:1001E0000F90DF91CF910895CF93DF93CDB7DEB716
:1001F0006D970FB6F894DEBF0FBECDBF81E0898347
:1002000080E690E00E94BE0240E062E680E690E078
:100210000E942C0380E090E8AAECB3E48E839F83D5
:10022000A887B98720E030E04AE755E46E817F81F6
:10023000888599850E940609DC01CB018A879B8706
:10024000AC87BD8720E030E040E85FE36A857B85CE
:100250008C859D850E94580888232CF481E090E0CD
:100260009F878E873FC020E03FEF4FE757E46A85C6
:100270007B858C859D850E94010918164CF520E030
:1002800030E040E251E46E817F81888599850E944B
:100290000609DC01CB01BC01CD010E945D08DC0137
:1002A000CB019F878E870FC080E991E0998B888B67
:1002B000888999890197F1F7998B888B8E859F851D
:1002C00001979F878E878E859F85892B69F714C03C
:1002D0006A857B858C859D850E945D08DC01CB014C
:1002E0009F878E878E859F859B8B8A8B8A899B892A
:1002F0000197F1F79B8B8A8B8981882351F482E3E4
:1003000090E022E330E0F90120812064FC012083A9
:1003100009C082E390E022E330E0F90120812F7BE5
:10032000FC01208380916B00682F80E690E00E94A2
:10033000990389838981882351F482E390E022E341
:1003400030E0F90120812068FC01208309C082E3AC
:1003500090E022E330E0F90120812F77FC01208337
:1003600080E690E00E94FE0280E090E0AAEFB4E414
:100370008A839B83AC83BD8320E030E04AE755E469
:100380006A817B818C819D810E940609DC01CB0101
:100390008C8B9D8BAE8BBF8B20E030E040E85FE321
:1003A0006C897D898E899F890E94580888232CF446
:1003B00081E090E0998F888F3FC020E03FEF4FE7CA
:1003C00057E46C897D898E899F890E9401091816DE
:1003D0004CF520E030E040E251E46A817B818C8181
:1003E0009D810E940609DC01CB01BC01CD010E9468
:1003F0005D08DC01CB01998F888F0FC080E991E007
:100400009B8F8A8F8A8D9B8D0197F1F79B8F8A8FA7
:10041000888D998D0197998F888F888D998D892BDB
:1004200069F714C06C897D898E899F890E945D0857
:10043000DC01CB01998F888F888D998D9D8F8C8F52
:100440008C8D9D8D0197F1F79D8F8C8F80916B0026
:100450008F5F80936B0080916B008B3818F081E880
:1004600080936B0000006D960FB6F894DEBF0FBE50
:10047000CDBFDF91CF910895CF93DF93CDB7DEB796
:1004800086E290E026E230E0F90120812061FC0163
:10049000208380916C0090916D00892B31F08091C8
:1004A0006C0090916D00FC0109950000DF91CF91E7
:1004B0000895CF93DF9300D0CDB7DEB79A838983B9
:1004C00089819A81892B11F480E053C086E590E000
:1004D00026E530E0F90120812B7FFC012083898112
:1004E0009A81FC0180818823C1F489819A810E94CC
:1004F000E40389819A810E94360489819A81FC01F2
:1005000086818823C9F082E290E029813A81F9014D
:100510002681220FFC0120830FC089819A81FC0172
:100520008081813049F482E290E029813A81F901A9
:100530002781220FFC01208389819A81FC0180851B
:10054000882321F089819A810E94810486E590E0C8
:1005500026E530E0F90120812064FC01208386E556
:1005600090E026E530E0F90120812460FC01208341
:1005700081E00F900F90DF91CF910895CF93DF939B
:1005800000D0CDB7DEB79A83898389819A81892B80
:1005900011F480E02EC086E590E026E530E0F90118
:1005A00020812068FC01208386E590E026E530E08C
:1005B000F90120812062FC01208386E590E026E598
:1005C00030E0F90120812460FC0120830E94AA040C
:1005D000813011F080E00DC081E290E0FC0180816B
:1005E000882F90E0887F9927089711F080E001C05C
:1005F00081E00F900F90DF91CF910895CF93DF931B
:1006000000D0CDB7DEB79A83898389819A81892BFF
:1006100011F480E01CC086E590E026E530E0F901A9
:1006200020812068FC01208386E590E026E530E00B
:10063000F90120812061FC01208386E590E026E518
:1006400030E0F90120812460FC01208381E00F90DB
:100650000F90DF91CF910895CF93DF9300D000D01A
:1006600000D0CDB7DEB79C838B836D834E838B81A7
:100670009C81892B11F480E053C085E089834BC0B5
:1006800083E290E02D81222F30E0220F331F322FA2
:100690002E812170232BFC01208386E590E026E546
:1006A00030E0F90120812F7DFC01208386E590E078
:1006B00026E530E0F90120812068FC01208386E5F1
:1006C00090E026E530E0F90120812460FC012083E0
:1006D0000E94AA04813021F08981815089831BC046
:1006E0008E81882311F080E401C088E18A8381E251
:1006F00090E0FC018081882F90E09C01287F3327C7
:100700008A81882F90E02817390711F481E008C00A
:100710008981815089838981882309F0B1CF80E064
:1007200026960FB6F894DEBF0FBECDBFDF91CF91F6
:100730000895CF93DF9300D000D0CDB7DEB79B8371
:100740008A836C838A819B81892B11F480E035C078
:100750008AE089832EC083E290E02C81FC01208313
:1007600086E590E026E530E0F90120812068FC0173
:10077000208386E590E026E530E0F90120812460C1
:10078000FC0120830E94AA04813021F089818150DC
:1007900089830FC081E290E0FC018081882F90E086
:1007A000887F9927889711F481E007C0898181505B
:1007B00089838981882379F680E00F900F900F90CC
:1007C0000F90DF91CF910895CF93DF9300D0CDB7F5
:1007D000DEB79A83898381E290E021E230E0F9017B
:1007E00020812C7FFC01208389819A81FC018581F5
:1007F000882F90E081309105A9F0823091051CF49A
:10080000892B39F02DC082309105B1F00397F1F0BA
:1008100027C081E290E021E230E0F9012081FC0173
:1008200020831EC081E290E021E230E0F9012081C6
:100830002160FC01208314C081E290E021E230E0DD
:10084000F90120812260FC0120830AC081E290E04E
:1008500021E230E0F90120812360FC0120830000C7
:1008600000000F900F90DF91CF9108950F931F9389
:10087000CF93DF9300D01F92CDB7DEB79B838A83DF
:100880008A819B81FC018581882F90E09C01220F49
:10089000331F81E090E002C0880F991F2A95E2F78C
:1008A000898300E210E08A819B81FC0121813281F1
:1008B0004381548180E094E2A4EFB0E0BC01CD011B
:1008C0000E947309DA01C9014097A109B109298180
:1008D000222F30E0220F331F032E000C440B550B48
:1008E000BC01CD010E947309DA01C901F8018083BE
:1008F00000000F900F900F90DF91CF911F910F91FB
:100900000895CF93DF9300D0CDB7DEB79A83898364
:1009100089819A81FC018185928590936F008093F3
:100920006E0086E590E026E530E0F9012081216047
:10093000FC01208386E590E026E530E0F901208186
:100940002068FC012083789400000F900F90DF91C5
:10095000CF910895CF93DF9300D0CDB7DEB780E17C
:1009600097E29A8389830BC089819A8101979A8340
:10097000898389819A81892B11F480E007C086E5FB
:1009800090E0FC01808188237CF781E00F900F903C
:10099000DF91CF9108951F920F9200905F000F9208
:1009A00011242F933F934F935F936F937F938F9374
:1009B0009F93AF93BF93EF93FF93CF93DF93CDB705
:1009C000DEB786E590E026E530E0F9012081206879
:1009D000FC01208380916E0090916F00892B31F093
:1009E00080916E0090916F00FC0109950000DF91ED
:1009F000CF91FF91EF91BF91AF919F918F917F9197
:100A00006F915F914F913F912F910F9000925F00F6
:100A10000F901F901895CF93DF93CDB7DEB78AE57F
:100A200090E02AE530E0F90120812F7BFC01208352
:100A30008091700090917100892B31F0809170004D
:100A400090917100FC0109950000DF91CF9108950C
:100A5000CF93DF93CDB7DEB78AE590E02AE530E0AB
:100A6000F90120812F77FC01208380917200909101
:100A70007300892B31F08091720090917300FC011A
:100A800009950000DF91CF910895CF93DF93CDB703
:100A9000DEB78AE590E02AE530E0F90120812F7D7C
:100AA000FC0120838091740090917500892B31F0B6
:100AB0008091740090917500FC0109950000DF9110
:100AC000CF9108951F920F9200905F000F92112412
:100AD0002F933F934F935F936F937F938F939F9346
:100AE000AF93BF93EF93FF93CF93DF93CDB7DEB771
:100AF0000E940B050000DF91CF91FF91EF91BF9114
:100B0000AF919F918F917F916F915F914F913F91A5
:100B10002F910F9000925F000F901F9018951F92D9
:100B20000F9200905F000F9211242F933F934F93E9
:100B30005F936F937F938F939F93AF93BF93EF9345
:100B4000FF93CF93DF93CDB7DEB70E942805000057
:100B5000DF91CF91FF91EF91BF91AF919F918F91D5
:100B60007F916F915F914F913F912F910F900092E4
:100B70005F000F901F9018951F920F9200905F00DA
:100B80000F9211242F933F934F935F936F937F9313
:100B90008F939F93AF93BF93EF93FF93CF93DF9385
:100BA000CDB7DEB70E9445050000DF91CF91FF91E0
:100BB000EF91BF91AF919F918F917F916F915F91D5
:100BC0004F913F912F910F9000925F000F901F90D7
:100BD00018951F920F9200905F000F9211242F938F
:100BE0003F934F935F936F937F938F939F93AF93B5
:100BF000BF93EF93FF93CF93DF93CDB7DEB70E9400
:100C00003C020000DF91CF91FF91EF91BF91AF9136
:100C10009F918F917F916F915F914F913F912F9114
:100C20000F9000925F000F901F9018951F920F92E7
:100C300000905F000F9211242F933F934F935F9387
:100C40006F937F938F939F93AF93BF93EF93FF9394
:100C5000CF93DF93CDB7DEB70E9451070000DF913D
:100C6000CF91FF91EF91BF91AF919F918F917F9124
:100C70006F915F914F913F912F910F9000925F0084
:100C80000F901F9018951F920F9200905F000F9287
:100C900011242F933F934F935F936F937F938F9381
:100CA0009F93AF93BF93EF93FF93CF93DF93CDB712
:100CB000DEB70E946E070000DF91CF91FF91EF91A8
:100CC000BF91AF919F918F917F916F915F914F9164
:100CD0003F912F910F9000925F000F901F901895F9
:100CE0001F920F9200905F000F9211242F933F9359
:100CF0004F935F936F937F938F939F93AF93BF9324
:100D0000EF93FF93CF93DF93CDB7DEB70E948B07AE
:100D10000000DF91CF91FF91EF91BF91AF919F9133
:100D20008F917F916F915F914F913F912F910F9094
:100D300000925F000F901F9018951F920F920090E5
:100D40005F000F9211242F933F934F935F936F9304
:100D50007F938F939F93AF93BF93EF93FF93CF9323
:100D6000DF93CDB7DEB70E94AE070000DF91CF91D1
:100D7000FF91EF91BF91AF919F918F917F916F9173
:100D80005F914F913F912F910F9000925F000F90D4
:100D90001F9018951F920F9200905F000F921124E0
:100DA0002F933F934F935F936F937F938F939F9373
:100DB000AF93BF93EF93FF93CF93DF93CDB7DEB79E
:100DC0000E94DD070000DF91CF91FF91EF91BF916D
:100DD000AF919F918F917F916F915F914F913F91D3
:100DE0002F910F9000925F000F901F9018951F9207
:100DF0000F9200905F000F9211242F933F934F9317
:100E00005F936F937F938F939F93AF93BF93EF9372
:100E1000FF93CF93DF93CDB7DEB70E940C0800009D
:100E2000DF91CF91FF91EF91BF91AF919F918F9102
:100E30007F916F915F914F913F912F910F90009211
:100E40005F000F901F9018951F920F9200905F0007
:100E50000F9211242F933F934F935F936F937F9340
:100E60008F939F93AF93BF93EF93FF93CF93DF93B2
:100E7000CDB7DEB70E943B080000DF91CF91FF9114
:100E8000EF91BF91AF919F918F917F916F915F9102
:100E90004F913F912F910F9000925F000F901F9004
:100EA0001895CF93DF93CDB7DEB78EE290E02EE2B8
:100EB00030E0F90120812F77FC01208380917600BA
:100EC00090917700892B31F0809176009091770096
:100ED000FC0109950000DF91CF910895CF93DF9336
:100EE000CDB7DEB788E590E028E530E0F901208154
:100EF0002260FC0120838091780090917900892BF9
:100F000031F08091780090917900FC010995000002
:100F1000DF91CF910895CF93DF93CDB7DEB788E50A
:100F200090E028E530E0F90120812160FC01208378
:100F300082E590E020917C00FC01208380917A0082
:100F400090917B00892B31F080917A0090917B0009
:100F5000FC0109950000DF91CF910895CF93DF93B5
:100F6000CDB7DEB788E590E028E530E0F9012081D3
:100F70002062FC01208387E490E02091850030917D
:100F80008600232F3327FC01208386E490E0209104
:100F9000850030918600FC01208380917D00909136
:100FA0007E00892B31F080917D0090917E00FC01C4
:100FB00009950000DF91CF910895CF93DF93CDB7CE
:100FC000DEB788E590E028E530E0F9012081206176
:100FD000FC0120838BE490E0209187003091880011
:100FE000232F3327FC0120838AE490E0209187009F
:100FF00030918800FC01208380917F0090918000D7
:10100000892B31F080917F0090918000FC0109953F
:101010000000DF91CF910895CF93DF93CDB7DEB776
:1010200088E590E028E530E0F90120812860FC01A6
:10103000208389E490E02091890030918A00232F59
:101040003327FC01208388E490E0209189003091CF
:101050008A00FC0120838091810090918200892B7D
:1010600031F08091810090918200FC01099500008F
:10107000DF91CF910895CF93DF93CDB7DEB788E5A9
:1010800090E028E530E0F90120812460FC01208314
:101090008091830090918400892B31F080918300AE
:1010A00090918400FC0109950000DF91CF91089593
:1010B0000E948C0808F481E008950E94E00888F0FE
:1010C0009F5798F0B92F9927B751B0F0E1F0660F0C
:1010D000771F881F991F1AF0BA95C9F714C0B1304D
:1010E00091F00E94FA08B1E008950C94FA08672F75
:1010F000782F8827B85F39F0B93FCCF3869577957C
:101100006795B395D9F73EF4909580957095619564
:101110007F4F8F4F9F4F0895990F0008550FAA0BCF
:10112000E0E8FEEF16161706E807F907C0F01216FA
:101130001306E407F50798F0621B730B840B950BFD
:1011400039F40A2661F0232B242B252B21F4089552
:101150000A2609F4A140A6958FEF811D811D0895EF
:1011600097F99F6780E870E060E008959FEF80EC5A
:10117000089500240A9416161706180609060895FD
:1011800000240A9412161306140605060895092E63
:101190000394000C11F4882352F0BB0F40F4BF2BD2
:1011A00011F460FF04C06F5F7F4F8F4F9F4F089512
:1011B00057FD9058440F551F59F05F3F71F0479508
:1011C000880F97FB991F61F09F3F79F087950895ED
:1011D000121613061406551FF2CF4695F1DF08C00C
:1011E000161617061806991FF1CF86957105610529
:1011F00008940895E894BB2766277727CB0197F9D1
:1012000008950E948C0808F48FEF08950E94190930
:101210000C94C7080E94B90838F00E94C00820F05A
:10122000952311F00C94B0080C94B60811240C947A
:10123000FB080E94D80870F3959FC1F3950F50E00A
:10124000551F629FF001729FBB27F00DB11D639F78
:10125000AA27F00DB11DAA1F649F6627B00DA11D1E
:10126000661F829F2227B00DA11D621F739FB00DC4
:10127000A11D621F839FA00D611D221F749F332734
:10128000A00D611D231F849F600D211D822F762FCD
:101290006A2F11249F5750409AF0F1F088234AF0AA
:1012A000EE0FFF1FBB1F661F771F881F9150504016
:1012B000A9F79E3F510580F00C94B0080C94FB08F0
:1012C0005F3FE4F3983ED4F3869577956795B7959D
:1012D000F795E7959F5FC1F7FE2B880F911D9695B7
:1012E000879597F90895A1E21A2EAA1BBB1BFD0151
:1012F0000DC0AA1FBB1FEE1FFF1FA217B307E407F5
:10130000F50720F0A21BB30BE40BF50B661F771F4C
:10131000881F991F1A9469F760957095809590952C
:0E1320009B01AC01BD01CF010895F894FFCFF1
:0C132E0000A086010000100000490081B2
:00000001FF
