:100000000C9451000C943E040C9462040C948604ED
:100010000C946E000C946E000C9416050C943A052A
:100020000C945E050C9482050C94CE040C94F2049E
:100030000C946E000C946E000C946E000C946E0088
:100040000C94AA040C946E000C946E000C94F203B1
:100050000C946E00C300C800CD00D200D700DC00B5
:10006000E100E600EB00F000F500FA00FF000401FB
:1000700009010E01A301AD01B701C101CB01D501F9
:10008000DF01F601030210021D022A0237024402B8
:1000900051026A026E02720276027A027E028202C5
:1000A000860211241FBECFE5D8E0DEBFCDBF10E031
:1000B000A0E6B0E0E0EAF5E102C005900D92A03ABA
:1000C000B107D9F720E0A0EAB0E001C01D92A03C42
:1000D000B207E1F70E94AE000C94CE0A0C94000027
:1000E0000E94C4080E94F3080E94AF0880E690E0D6
:1000F0000E94C403089594B3906894BB20E019C093
:1001000095B3906895BB3FEF41EE94E0315040408D
:100110009040E1F700C0000095B39F7795BB3FEF9B
:1001200041EE94E0315040409040E1F700C00000C3
:100130002F5F281728F3089581B1887F8093A0004E
:1001400083B1803C51F08091A000803A31F083B1BE
:100150008093BF0081E00E947B0008950E947000A0
:100160001092BF0083E00E947B00E091BF008E2FC1
:1001700090E0FC01E058F109E031F105B0F7E65DEF
:10018000FF4F0C94C80A0E94CD081092BF00EDCF1B
:100190000E94D2081092BF00E8CF0E94D7081092A8
:1001A000BF00E3CF0E94DC081092BF00DECF0E94A8
:1001B000E1081092BF00D9CF0E94EA081092BF0058
:1001C000D4CF0E941F091092BF00CFCF0E94F30826
:1001D0001092BF00CACF0E944B091092BF00C5CF3A
:1001E0000E9478091092BF00C0CF0E94A10910920E
:1001F000BF00BBCF0E94CE091092BF00B6CF0E94B5
:10020000F7091092BF00B1CF0E94250A1092BF00DB
:10021000ACCF0E944F0A1092BF00A7CF0E947D0A68
:100220001092BF00A2CFCF93DF931F92CDB7DEB75E
:100230000097E1F0FC012081922F97708981887FDF
:10024000892B922F92959F709770990F990F990F04
:10025000877C892B27FB222720F9806420FB87F9E4
:100260008983CE0101960E945A0301C080E00F905D
:10027000DF91CF910895CF93DF931F92CDB7DEB773
:100280000097E9F0FC012081922F97708981887F87
:10029000892B922F92959F709770990F990F990FB4
:1002A000877C892B27FB222720F9806420FB87F994
:1002B000898361E0CE0101960E941A0301C080E0AB
:1002C0000F90DF91CF910895CF93DF931F92CDB719
:1002D000DEB70097E9F0FC012081922F97708981A9
:1002E000887F892B922F92959F709770990F990F05
:1002F000990F877C892B27FB222720F9806420FB1C
:1003000087F9898360E0CE0101960E941A0301C03B
:1003100080E00F90DF91CF910895DC01892B09F4E3
:100320003BC186B18F7786B91296EC9112974E2F0A
:1003300050E0FA013197E730F10508F049C0E65C7A
:10034000FF4F0C94C80A86B1816086B986B18D7F53
:1003500086B986B18B7F86B93BC086B18E7F86B960
:1003600086B1826086B986B18B7F86B931C086B18D
:10037000816086B986B1826086B986B18B7F86B985
:1003800027C086B18E7F86B986B18D7F86B986B14A
:10039000846086B91DC086B1816086B986B18D7FC3
:1003A00086B986B1846086B913C086B18E7F86B95E
:1003B00086B1826086B986B1846086B909C086B18B
:1003C000816086B986B1826086B986B1846086B95B
:1003D0001396EC9113974E2F50E04830510508F0DA
:1003E0006CC0FA01EF5BFF4F0C94C80A87B18E7F97
:1003F00087B987B18D7F87B987B18B7F87B987B17F
:10040000877F87B95AC087B1816087B987B18D7FEF
:1004100087B987B18B7F87B987B1877F87B94DC08F
:1004200087B18E7F87B987B1826087B987B18B7FAB
:1004300087B987B1877F87B940C087B1816087B9A5
:1004400087B1826087B987B18B7F87B987B1877F92
:1004500087B933C087B18E7F87B987B18D7F87B960
:1004600087B1846087B987B1877F87B926C087B194
:10047000816087B987B18D7F87B987B1846087B97B
:1004800087B1877F87B919C087B18E7F87B987B158
:10049000826087B987B1846087B987B1877F87B960
:1004A0000CC087B1816087B987B1826087B987B195
:1004B000846087B987B1877F87B91396EC911397CA
:1004C0004E2F50E04830510520F5FA01E75BFF4F11
:1004D0000C94C80A8AB38E7F8ABB1BC08AB38D7FF7
:1004E0008ABB17C08AB38B7F8ABB13C08AB3877F4E
:1004F0008ABB0FC08AB38F7E8ABB0BC08AB38F7D45
:100500008ABB07C08AB38F7B8ABB03C08AB38F774D
:100510008ABB86B1886086B986B1806186B97894D5
:100520008D919C9111979093A2008093A1001596B4
:100530008C911597982F917080FF04C087B18F7DA3
:1005400087B909C0911104C087B1806287B903C01F
:1005500087B18F7D87B914968C91813059F018F04E
:10056000833079F014C087B18F7787B987B18F7BDB
:1005700087B90DC087B18F7787B987B1806487B994
:1005800006C087B1806887B987B1806487B986B1B2
:10059000806886B981E0089580E0089586B1806121
:1005A00086B9E091A100F091A200309709F0099579
:1005B0000895FC01892BD1F1208126952695269559
:1005C0002770808186FB992790F986FF18C09130AB
:1005D00079F5E82FE770F0E0EE0FFF1FED58FF4FC1
:1005E0000190F081E02D308181E090E002C0880F21
:1005F000991F2A95E2F7832B808381E00895E0819B
:10060000E770F0E0EE0FFF1FED58FF4F0190F08113
:10061000E02D308181E090E002C0880F991F2A957B
:10062000E2F780958323808381E0089580E0089538
:1006300080E008950097D1F1DC012C912695269554
:1006400026952770662319F06130C9F031C0DC01AE
:10065000EC91E770F0E0EE0FFF1FE559FF4F0190BE
:10066000F081E02D308181E090E002C0880F991F79
:100670002A95E2F780958323808381E00895DC0149
:10068000EC91E770F0E0EE0FFF1FE559FF4F01908E
:10069000F081E02D308181E090E002C0880F991F49
:1006A0002A95E2F7832B808381E0089580E0089506
:1006B00080E00895CF93DF93009761F0EC010E94F2
:1006C000D902688167FB662760F9CE010E941A0390
:1006D00081E001C080E0DF91CF91089521B12C7FAE
:1006E00021B9FC018581813049F028F0823051F038
:1006F000833061F0089581B181B9089581B181603D
:1007000081B9089581B1826081B9089581B1836012
:1007100081B90895CF93DF93FC01458150E0440FE8
:10072000551FC1E0D0E002C0CC0FDD1F4A95E2F7B3
:10073000218132814381548160E074E284EF90E052
:100740000E94A60ACA01B901605171098109910983
:10075000DD279E01220F331F032E000C440B550B87
:100760000E94A60A20B9DF91CF910895FC018185EE
:1007700092859093A4008093A30086B7816086BF82
:1007800085EC86BF78940895CF93DF93009731F17D
:10079000EC0186B78B7F86BF888181110CC0CE01AA
:1007A0000E946E03CE010E948A038E81882341F04D
:1007B000880F82B905C0813019F48F81880F82B902
:1007C0008885882319F0CE010E94B60386B780641D
:1007D00086BF86B7846086BF81E001C080E0DF917C
:1007E000CF9108951F920F920FB60F9211242F935D
:1007F0003F934F935F936F937F938F939F93AF93A9
:10080000BF93EF93FF9385EC86BFE091A300F09137
:10081000A400309709F00995FF91EF91BF91AF9136
:100820009F918F917F916F915F914F913F912F9108
:100830000F900FBE0F901F9018958AB78F7B8ABFBD
:10084000E091A900F091AA00309709F00995089568
:100850008AB78F778ABFE091A700F091A800309700
:1008600009F0099508958AB78F7D8ABFE091A500A8
:10087000F091A600309709F0099508951F920F9204
:100880000FB60F9211242F933F934F935F936F9363
:100890007F938F939F93AF93BF93EF93FF930E94A8
:1008A0001D04FF91EF91BF91AF919F918F917F9127
:1008B0006F915F914F913F912F910F900FBE0F90CD
:1008C0001F9018951F920F920FB60F9211242F931D
:1008D0003F934F935F936F937F938F939F93AF93C8
:1008E000BF93EF93FF930E942804FF91EF91BF9174
:1008F000AF919F918F917F916F915F914F913F91B8
:100900002F910F900FBE0F901F9018951F920F926E
:100910000FB60F9211242F933F934F935F936F93D2
:100920007F938F939F93AF93BF93EF93FF930E9417
:100930003304FF91EF91BF91AF919F918F917F9180
:100940006F915F914F913F912F910F900FBE0F903C
:100950001F9018951F920F920FB60F9211242F938C
:100960003F934F935F936F937F938F939F93AF9337
:10097000BF93EF93FF930E94CE02FF91EF91BF913F
:10098000AF919F918F917F916F915F914F913F9127
:100990002F910F900FBE0F901F9018951F920F92DE
:1009A0000FB60F9211242F933F934F935F936F9342
:1009B0007F938F939F93AF93BF93EF93FF930E9487
:1009C000B606FF91EF91BF91AF919F918F917F916B
:1009D0006F915F914F913F912F910F900FBE0F90AC
:1009E0001F9018951F920F920FB60F9211242F93FC
:1009F0003F934F935F936F937F938F939F93AF93A7
:100A0000BF93EF93FF930E94C106FF91EF91BF91B7
:100A1000AF919F918F917F916F915F914F913F9196
:100A20002F910F900FBE0F901F9018951F920F924D
:100A30000FB60F9211242F933F934F935F936F93B1
:100A40007F938F939F93AF93BF93EF93FF930E94F6
:100A50006508FF91EF91BF91AF919F918F917F9129
:100A60006F915F914F913F912F910F900FBE0F901B
:100A70001F9018951F920F920FB60F9211242F936B
:100A80003F934F935F936F937F938F939F93AF9316
:100A9000BF93EF93FF930E947A08FF91EF91BF916C
:100AA000AF919F918F917F916F915F914F913F9106
:100AB0002F910F900FBE0F901F9018951F920F92BD
:100AC0000FB60F9211242F933F934F935F936F9321
:100AD0007F938F939F93AF93BF93EF93FF930E9466
:100AE0008F08FF91EF91BF91AF919F918F917F916F
:100AF0006F915F914F913F912F910F900FBE0F908B
:100B00001F9018951F920F920FB60F9211242F93DA
:100B10003F934F935F936F937F938F939F93AF9385
:100B2000BF93EF93FF930E94A408FF91EF91BF91B1
:100B3000AF919F918F917F916F915F914F913F9175
:100B40002F910F900FBE0F901F901895009751F1A5
:100B5000FC018185813071F028F0823099F083307A
:100B6000C9F022C083B78F7E83BF83B78F7D83BFD9
:100B700081E0089583B7806183BF83B78F7D83BF92
:100B800081E0089583B78F7E83BF83B7806283BF80
:100B900081E0089583B7806183BF83B7806283BF9C
:100BA00081E0089580E0089580E00895009751F174
:100BB000FC018185813071F028F0823099F083301A
:100BC000C9F022C083B78F7E83BF83B78F7D83BF79
:100BD00081E0089583B7806183BF83B78F7D83BF32
:100BE00081E0089583B78F7E83BF83B7806283BF20
:100BF00081E0089583B7806183BF83B7806283BF3C
:100C000081E0089580E0089580E00895009701F163
:100C1000FC018285823061F0833091F081111AC02D
:100C200083B78F7E83BF83B78F7D83BF81E00895B5
:100C300083B78F7E83BF83B7806283BF81E00895CF
:100C400083B7806183BF83B7806283BF81E00895EB
:100C500080E0089580E008950097E9F0FC0120818C
:100C600031813093B0002093AF0029B7226029BFB3
:100C700028B7226028BF7894828193819093AE0038
:100C80008093AD0089B7816089BF88B7816088BFD4
:100C9000789481E0089580E008950F931F93CF9397
:100CA000DF931F92CDB7DEB78C01892B09F448C0C2
:100CB00080919D008983CE0101960E94D902F8019E
:100CC00084818093AC0082BF85818CBF85818093B5
:100CD000AB008681813019F4C8010E942C06F8010E
:100CE0008085823089F08330E1F0811127C083B79D
:100CF0008F7783BF83B78F7B83BF83B7877F83BFA4
:100D0000C8010E94A6051DC083B78F7783BF83B734
:100D10008F7B83BF83B7886083BFC8010E94D605DD
:100D200010C083B78F7783BF83B7806483BF83B7D7
:100D3000886083BFC8010E94060603C080E001C02E
:100D400080E093B7987F93BF23B7F8019781922BE8
:100D500093BF0F90DF91CF911F910F910895892B31
:100D600019F06CBF81E0089580E0089588B7826033
:100D700088BFE091AF00F091B000309709F009957D
:100D8000089588B7816088BF8091AC0082BFE091F0
:100D9000AD00F091AE00309709F0099508950097E5
:100DA00009F44FC0FC012389213069F028F022307A
:100DB00089F02330B1F01BC02FB52F772FBD2FB591
:100DC0002F7B2FBD14C02FB52F772FBD2FB52064DB
:100DD0002FBD0DC02FB520682FBD2FB52F7B2FBD88
:100DE00006C02FB520682FBD2FB520642FBDFC0194
:100DF0008489813071F028F0823099F08330C9F015
:100E000022C08FB58F7D8FBD8FB58F7E8FBD81E066
:100E100008958FB58F7D8FBD8FB580618FBD81E0C7
:100E200008958FB580628FBD8FB58F7E8FBD81E0B5
:100E300008958FB580628FBD8FB580618FBD81E0D1
:100E4000089580E0089581E00895009709F44FC067
:100E5000FC012589213069F028F0223089F0233007
:100E6000B1F01BC02FB52F772FBD2FB52F7B2FBD16
:100E700014C02FB52F772FBD2FB520642FBD0DC007
:100E80002FB520682FBD2FB52F7B2FBD06C02FB5E6
:100E900020682FBD2FB520642FBDFC0186898130CD
:100EA00071F028F0823099F08330C9F022C08FB5FC
:100EB0008F7D8FBD8FB58F7E8FBD81E008958FB5FB
:100EC0008F7D8FBD8FB580618FBD81E008958FB517
:100ED00080628FBD8FB58F7E8FBD81E008958FB505
:100EE00080628FBD8FB580618FBD81E0089580E005
:100EF000089581E00895FC01892BB1F180819181F1
:100F00009093BE008093BD0089B7806289BF88B787
:100F1000806288BF7894828193819093BC00809393
:100F2000BB0089B7806189BF88B7806188BF78942A
:100F3000848195819093BA008093B90089B78860C5
:100F400089BF88B7886088BF78948681978190939D
:100F5000B8008093B70089B7846089BF88B7846080
:100F600088BF789481E0089580E008950F931F93DF
:100F7000CF93DF9300D0CDB7DEB7009709F49DC0C3
:100F80008C0180919E008A8380919F008983CE018D
:100F900002960E94D902CE0101960E94D902F80160
:100FA00083858BBD82858ABD828593859093B400AD
:100FB0008093B300858589BD848588BD84859585AA
:100FC0009093B2008093B100878587BD868586BDEA
:100FD000868597859093B6008093B500808981308F
:100FE00019F4C8010E947B07F8018289823061F1FF
:100FF00028F4882349F08130B9F055C08330A1F13D
:10100000843009F441C04FC08FB58E7F8FBD8FB53E
:101010008D7F8FBD8EB5877F8EBD8EB58F7E8EBD49
:10102000C8010E94CF063FC08FB58E7F8FBD8FB5A0
:101030008D7F8FBD8EB588608EBD8EB580618EBD73
:10104000C8010E94CF062FC08FB58E7F8FBD8FB590
:101050008D7F8FBD8EB588608EBD8EB58F7E8EBD27
:10106000C8010E94CF061FC08FB58E7F8FBD8FB580
:1010700082608FBD8EB588608EBD8EB580618EBD5D
:10108000C8010E9425070FC08FB581608FBD8FB545
:1010900082608FBD8EB588608EBD8EB580618EBD3D
:1010A000C8010E9425078EB5887F8EBD9EB5F801C8
:1010B0008189892B8EBD81E001C080E00F900F9067
:1010C000DF91CF911F910F91089588B7806288BFFB
:1010D0008091B5009091B60097BD8091B500909138
:1010E000B60086BDE091BD00F091BE00309709F0DA
:1010F0000995089588B7806188BF8091B300909169
:10110000B4009BBD8091B3009091B4008ABDE09182
:10111000BB00F091BC00309709F00995089588B79D
:10112000886088BF8091B1009091B20099BD809194
:10113000B1009091B20088BDE091B900F091BA0081
:10114000309709F00995089588B7846088BFE091C9
:10115000B700F091B800309709F00995089583E938
:1011600090E00E948D018DE890E00E948D0187E85B
:1011700090E00E948D0181E890E00E948D018BE754
:1011800090E00E948D0108958AE990E00E94130189
:1011900089E990E00E94130108958AE990E00E9495
:1011A0003B0108958AE990E00E946401089589E96D
:1011B00090E00E943B01089589E990E00E9464015B
:1011C00008958AE990E00E943B0189E990E00E943D
:1011D0003B0108958AE990E00E94640189E990E06A
:1011E0000E94640108950F931F93CF93DF93CDB7AF
:1011F000DEB72B970FB6F894DEBF0FBECDBF8E01C2
:101200000F5F1F4F8BE0F80111928A95E9F784E098
:10121000888783E0898782E08B87C8010E944D061A
:1012200069E1C8010E94AF062B960FB6F894DEBFA5
:101230000FBECDBFDF91CF911F910F9108950F93F6
:101240001F93CF93DF93CDB7DEB72B970FB6F894EC
:10125000DEBF0FBECDBF8E010F5F1F4F8BE0F801C9
:1012600011928A95E9F784E0888783E0898782E094
:101270008B87C8010E944D066FEFC8010E94AF0620
:101280002B960FB6F894DEBF0FBECDBFDF91CF9186
:101290001F910F910895CF93DF93CDB7DEB7699774
:1012A0000FB6F894DEBF0FBECDBF21E020939C00A7
:1012B000CE01019639E1FC0111923A95E9F742E13C
:1012C0005AE75C874B875E874D8734E03A8B32E084
:1012D0003B8B2C8B20919B002D8B0E94B60769962F
:1012E0000FB6F894DEBF0FBECDBFDF91CF9108954A
:1012F0001F93CF93DF93CDB7DEB769970FB6F894FE
:10130000DEBF0FBECDBF10929C00CE01019629E139
:10131000FC0111922A95E9F714E01A8B22E02B8B3D
:1013200020919B002D8B0E94B60710939C0069961C
:101330000FB6F894DEBF0FBECDBFDF91CF911F91E6
:101340000895CF93DF93CDB7DEB769970FB6F894C2
:10135000DEBF0FBECDBF21E020939B00CE010196E2
:1013600039E1FC0111923A95E9F742E15AE75C87CD
:101370004B875E874D8734E03A8B32E03B8B309170
:101380009C003C8B2D8B0E94B60769960FB6F89493
:10139000DEBF0FBECDBFDF91CF9108951F93CF93D6
:1013A000DF93CDB7DEB769970FB6F894DEBF0FBEF7
:1013B000CDBF10929B00CE01019629E1FC01119254
:1013C0002A95E9F714E01A8B22E02B8B20919C00E0
:1013D0002C8B0E94B60710939B0069960FB6F89469
:1013E000DEBF0FBECDBFDF91CF911F910895CF9388
:1013F000DF93CDB7DEB769970FB6F894DEBF0FBEA7
:10140000CDBF91E090939C0090939B00FE0131969C
:1014100089E1DF011D928A95E9F722E13AE73C87ED
:101420002B873E872D8784E08A8B82E08B8B9C8B79
:101430009D8BCF010E94B60769960FB6F894DEBF68
:101440000FBECDBFDF91CF9108951F93CF93DF9350
:10145000CDB7DEB769970FB6F894DEBF0FBECDBF2C
:1014600010929C0010929B00CE01019629E1FC0194
:1014700011922A95E9F714E01A8B22E02B8B0E9437
:10148000B60710939C0010939B0069960FB6F894D2
:10149000DEBF0FBECDBFDF91CF911F910895CF93D7
:1014A000DF93CDB7DEB769970FB6F894DEBF0FBEF6
:1014B000CDBF91E090939C0090939B00FE013196EC
:1014C00089E1DF011D928A95E9F728EA31E63C8738
:1014D0002B873E872D8783E08A8B82E08B8B9C8BCA
:1014E0009D8BCF010E94B60769960FB6F894DEBFB8
:1014F0000FBECDBFDF91CF910895CF93DF93CDB7CE
:10150000DEB769970FB6F894DEBF0FBECDBF10925D
:101510009C0010929B00CE01019629E1FC011192E2
:101520002A95E9F723E02A8B22E02B8B0E94B6074D
:1015300094E090939C0090939B0069960FB6F8946A
:10154000DEBF0FBECDBFDF91CF910895A1E21A2E6D
:10155000AA1BBB1BFD010DC0AA1FBB1FEE1FFF1F57
:10156000A217B307E407F50720F0A21BB30BE40BA7
:10157000F50B661F771F881F991F1A9469F76095EE
:101580007095809590959B01AC01BD01CF010895A8
:10159000EE0FFF1F0590F491E02D0994F894FFCF12
:1015A0000100000000000060019C003B0038003595
:1015B0000032003A00370034003100000007040117
:1015C00001000007030101000007020101000007FC
:1015D0000101010000070001012232040459636B7C
:00000001FF
