:100000000C9434000C9451000C9451000C94510049
:100010000C9451000C9451000C949E040C944C04CC
:100020000C9475040C9423040C9488030C945F03C3
:100030000C9451000C9451000C9451000C945100FC
:100040000C9451000C9451000C9451000C94340306
:100050000C945100F800FD00FF00030105010701A9
:1000600009010B010F01130111241FBECFE5D8E0D8
:10007000DEBFCDBF10E0A0E6B0E0EAE1FDE002C0E7
:1000800005900D92AE38B107D9F720E0AEE8B0E0A8
:1000900001C01D92AE39B207E1F70E94D9000C945D
:1000A0008B060C94000062E083E00E94B10382E0C2
:1000B0000E94ED0382E00E9408048FEF90E097BD5C
:1000C00086BD0895811103C01BBC1ABC0895813000
:1000D00021F0823021F41BBC1ABC19BC18BC089555
:1000E000811109C061E00E9438028091600090E0B7
:1000F0009BBD8ABD0895813039F461E00E943802C9
:100100008091600090E00FC0823079F461E080E07F
:100110000E94380261E081E00E9438028091600014
:1001200090E09BBD8ABD99BD88BD0895811109C02D
:1001300060E00E9438028091600090E09BBD8ABD23
:100140000895813039F460E00E94380280916000A7
:1001500090E00FC0823079F460E080E00E943802C5
:1001600060E081E00E9438028091600090E09BBDD9
:100170008ABD99BD88BD0895853620F08FEF8093A4
:1001800060000895682F70E080E090E00E946805AC
:1001900020E030E048EC52E40E94C70420E030E068
:1001A0004FE753E40E94F6050E9439056093600012
:1001B00008950E94B7020E94530082E690E00E94D8
:1001C000CA022FEF82E597E0215080409040E1F78E
:1001D00000C00000E0919D008E2F90E0FC01E158EE
:1001E000F109EA30F105B0F7E65DFF4F0C948506A2
:1001F000809161000E94BC0019C082E00DC082E0C5
:100200000E949600E7CF82E00FC080E005C080E04A
:1002100007C080E009C081E00E94700007C081E053
:100220000E94960003C081E00E94620010929D002F
:10023000D1CFA79A90E09817B1F0AF9A2FEF31EE97
:1002400044E0215030404040E1F700C00000AF984A
:100250002FEF31EE44E0215030404040E1F700C044
:1002600000009F5FE8CF089581B1887F80938E0062
:1002700083B1803C59F080918E00803A39F083B18F
:1002800080939D0081E090E00C9419010895982FCF
:100290009695969596958770613009F44DC020F03B
:1002A000623009F496C008959130B1F028F0923090
:1002B00019F1933089F108954AB321E030E0B90192
:1002C00002C0660F771F8A95E2F7CB01942F982B17
:1002D0009ABB9BB3809547C047B321E030E0B9019A
:1002E00002C0660F771F8A95E2F7CB01942F982BF7
:1002F00097BB98B3809549C044B321E030E0B90181
:1003000002C0660F771F8A95E2F7CB01942F982BD6
:1003100094BB95B380954AC041B321E030E0B90168
:1003200002C0660F771F8A95E2F7CB01942F982BB6
:1003300091BB92B380954BC09130C1F028F09230C0
:1003400031F19330A9F108954AB321E030E0B901C9
:1003500002C0660F771F8A95E2F7CB018095942F34
:1003600098239ABB9BB389238BBB089547B321E0A5
:1003700030E0B90102C0660F771F8A95E2F7CB0122
:100380008095942F982397BB98B389234BC044B38F
:1003900021E030E0B90102C0660F771F8A95E2F7CD
:1003A000CB018095942F982394BB95B389234CC09F
:1003B00041B321E030E0B90102C0660F771F8A9592
:1003C000E2F7CB018095942F982391BB92B38923B8
:1003D0004DC09130B9F028F0923031F19330B1F145
:1003E00008954AB321E030E0B90102C0660F771FDB
:1003F0008A95E2F7CB01962F909594239ABB9BB3F5
:10040000892BB2CF47B321E030E0B90102C0660FBB
:10041000771F8A95E2F7CB01962F9095942397BB8F
:1004200098B3892B88BB089544B321E030E0B9012B
:1004300002C0660F771F8A95E2F7CB01962F909541
:10044000942394BB95B3892B85BB089541B321E0D8
:1004500030E0B90102C0660F771F8A95E2F7CB0141
:10046000962F9095942391BB92B3892B82BB0895CC
:10047000982F969596959695877061113CC091300E
:1004800099F028F09230E9F0933041F108954BB3A0
:1004900021E030E0B90102C0660F771F8A95E2F7CC
:1004A000CB01809584233AC048B321E030E0B90104
:1004B00002C0660F771F8A95E2F7CB0180958423EF
:1004C0003AC045B321E030E0B90102C0660F771FA2
:1004D0008A95E2F7CB01809584233AC042B321E0AC
:1004E00030E0B90102C0660F771F8A95E2F7CB01B1
:1004F000809584233AC0913099F028F09230E9F049
:10050000933041F108954BB321E030E0B90102C0CE
:10051000660F771F8A95E2F7CB01842B8BBB08957A
:1005200048B321E030E0B90102C0660F771F8A9519
:10053000E2F7CB01842B88BB089545B321E030E07E
:10054000B90102C0660F771F8A95E2F7CB01842BB1
:1005500085BB089542B321E030E0B90102C0660FC7
:10056000771F8A95E2F7CB01842B82BB08950F9306
:100570001F93CF930DE610E0C0E0F80161918F0169
:100580008C2F0E944701CF5FC032B9F7CF911F91E6
:100590000F910895CF93DF93EC01892B09F460C08C
:1005A00086B78B7F86BF888181113EC081B18C7FE9
:1005B00081B98D81813051F038F0823049F083303B
:1005C00051F481B1836006C081B104C0089A03C0B0
:1005D000099A01C081B929813A814B815C8160E02F
:1005E00074E284EF90E00E946306CA01B901605191
:1005F0007109810991092D81220F41E050E0FA0132
:1006000002C0EE0FFF1F2A95E2F79F013327220F4A
:10061000331F032E000C440B550B0E94630620B9B8
:100620008E81882331F003C0813019F48F81880FC7
:1006300082B98885882361F089859A859093900096
:1006400080938F0086B7816086BF85EC86BF7894E3
:1006500086B7806486BF86B7846086BF81E001C0AC
:1006600080E0DF91CF9108951F920F920FB60F9205
:1006700011242F933F934F935F936F937F938F93A7
:100680009F93AF93BF93EF93FF9385EC86BFE09169
:100690008F00F0919000309709F00995FF91EF914C
:1006A000BF91AF919F918F917F916F915F914F918A
:1006B0003F912F910F900FBE0F901F9018951F9292
:1006C0000F920FB60F9211242F933F934F935F9386
:1006D0006F937F938F939F93AF93BF93EF93FF930A
:1006E000E0919B00F0919C00309709F00995FF91F3
:1006F000EF91BF91AF919F918F917F916F915F919A
:100700004F913F912F910F900FBE0F901F90189512
:100710001F920F920FB60F9211242F933F934F9376
:100720005F936F937F938F939F93AF93BF93EF9359
:10073000FF93E0919900F0919A00309709F00995A4
:10074000FF91EF91BF91AF919F918F917F916F91A9
:100750005F914F913F912F910F900FBE0F901F907F
:1007600018958230D9F050F4882379F0813071F5F2
:100770008FB58E7F8FBD8FB58D7F21C08330D1F037
:10078000843021F58FB5816017C08FB58E7F8FBD06
:100790008FB58D7F8FBD8EB5877F08C08FB58E7F5B
:1007A0008FBD8FB58D7F8FBD8EB588608EBD8EB5A8
:1007B0008F7E0BC08FB58E7F8FBD8FB582608FBD52
:1007C0008EB588608EBD8EB580618EBD8EB5887FFA
:1007D0008EBD8EB5682B6EBD0895813049F028F02E
:1007E000823061F0833069F008958FB58F7B02C04D
:1007F0008FB580648FBD8FB58F7708C08FB58F7B25
:1008000002C08FB580648FBD8FB580688FBD08959D
:10081000813049F028F0823061F0833069F008952A
:100820008FB58F7E02C08FB580618FBD8FB58F7DF4
:1008300008C08FB58F7E02C08FB580618FBD8FB528
:1008400080628FBD08951F920F920FB60F921124F0
:100850002F933F934F935F936F937F938F939F93C8
:10086000AF93BF93EF93FF93E0919700F0919800BF
:10087000309709F00995FF91EF91BF91AF919F914A
:100880008F917F916F915F914F913F912F910F9039
:100890000FBE0F901F9018951F920F920FB60F92D8
:1008A00011242F933F934F935F936F937F938F9375
:1008B0009F93AF93BF93EF93FF93E0919500F091D7
:1008C0009600309709F00995FF91EF91BF91AF9194
:1008D0009F918F917F916F915F914F913F912F9158
:1008E0000F900FBE0F901F9018951F920F920FB68A
:1008F0000F9211242F933F934F935F936F937F93A6
:100900008F939F93AF93BF93EF93FF93E0919300E7
:10091000F0919400309709F00995FF91EF91BF9104
:10092000AF919F918F917F916F915F914F913F9187
:100930002F910F900FBE0F901F9018951F920F923E
:100940000FB60F9211242F933F934F935F936F93A2
:100950007F938F939F93AF93BF93EF93FF93E09118
:100960009100F0919200309709F00995FF91EF9175
:10097000BF91AF919F918F917F916F915F914F91B7
:100980003F912F910F900FBE0F901F9018950E94CE
:10099000DB040C94BC050E94B50558F00E94AE051E
:1009A00040F029F45F3F29F00C94A50551110C94F7
:1009B000F0050C94AB050E94CD0568F39923B1F3C3
:1009C000552391F3951B550BBB27AA276217730775
:1009D000840738F09F5F5F4F220F331F441FAA1F09
:1009E000A9F335D00E2E3AF0E0E832D091505040C5
:1009F000E695001CCAF72BD0FE2F29D0660F771F73
:100A0000881FBB1F261737074807AB07B0E809F058
:100A1000BB0B802DBF01FF2793585F4F3AF09E3FDD
:100A2000510578F00C94A5050C94F0055F3FE4F3B4
:100A3000983ED4F3869577956795B795F7959F5F20
:100A4000C9F7880F911D9695879597F90895E1E06C
:100A5000660F771F881FBB1F621773078407BA07CB
:100A600020F0621B730B840BBA0BEE1F88F7E09526
:100A700008950E94D50588F09F5798F0B92F9927BF
:100A8000B751B0F0E1F0660F771F881F991F1AF079
:100A9000BA95C9F714C0B13091F00E94EF05B1E0EA
:100AA00008950C94EF05672F782F8827B85F39F0E9
:100AB000B93FCCF3869577956795B395D9F73EF412
:100AC00090958095709561957F4F8F4F9F4F0895BA
:100AD000E89409C097FB3EF49095809570956195D8
:100AE0007F4F8F4F9F4F9923A9F0F92F96E9BB278E
:100AF0009395F695879577956795B795F111F8CF0A
:100B0000FAF4BB0F11F460FF1BC06F5F7F4F8F4F74
:100B10009F4F16C0882311F096E911C0772321F06A
:100B20009EE8872F762F05C0662371F096E8862F02
:100B300070E060E02AF09A95660F771F881FDAF759
:100B4000880F9695879597F9089597F99F6780E89C
:100B500070E060E008959FEF80EC089500240A940F
:100B60001616170618060906089500240A94121688
:100B70001306140605060895092E0394000C11F4BB
:100B8000882352F0BB0F40F4BF2B11F460FF04C068
:100B90006F5F7F4F8F4F9F4F089557FD9058440FC1
:100BA000551F59F05F3F71F04795880F97FB991FCC
:100BB00061F09F3F79F08795089512161306140689
:100BC000551FF2CF4695F1DF08C016161706180616
:100BD000991FF1CF86957105610508940895E894F1
:100BE000BB2766277727CB0197F908950E9409064E
:100BF0000C94BC050E94AE0538F00E94B50520F0AB
:100C0000952311F00C94A5050C94AB0511240C94BC
:100C1000F0050E94CD0570F3959FC1F3950F50E04C
:100C2000551F629FF001729FBB27F00DB11D639F9E
:100C3000AA27F00DB11DAA1F649F6627B00DA11D44
:100C4000661F829F2227B00DA11D621F739FB00DEA
:100C5000A11D621F839FA00D611D221F749F33275A
:100C6000A00D611D231F849F600D211D822F762FF3
:100C70006A2F11249F5750409AF0F1F088234AF0D0
:100C8000EE0FFF1FBB1F661F771F881F915050403C
:100C9000A9F79E3F510580F00C94A5050C94F00532
:100CA0005F3FE4F3983ED4F3869577956795B795C3
:100CB000F795E7959F5FC1F7FE2B880F911D9695DD
:100CC000879597F90895A1E21A2EAA1BBB1BFD0177
:100CD0000DC0AA1FBB1FEE1FFF1FA217B307E4071B
:100CE000F50720F0A21BB30BE40BF50B661F771F73
:100CF000881F991F1A9469F7609570958095909553
:100D00009B01AC01BD01CF010895EE0FFF1F0590BF
:0A0D1000F491E02D0994F894FFCF50
:100D1A00FFFF010000000000006201340101010030
:100D2A0000000000010000000000000102010100B3
:0E0D3A000000000000000000000000010000AA
:00000001FF
